:100000000C942A000C94F0160C941D170C944A17AB
:100010000C9447000C9447000C9447000C94470044
:100020000C9447000C9447000C9447000C94470034
:100030000C9447000C9447000C9447000C94470024
:100040000C9447000C9447000C9447000C94470014
:100050000C94470011241FBECFE5D8E0DEBFCDBF12
:1000600011E0A0E6B0E0EEEBF1E502C005900D92E4
:10007000A03AB107D9F711E0A0EAB1E001C01D92A2
:10008000A63AB107E1F70E9405280C94DD280C94EC
:100090000000EF92FF920F931F937B018C0120E0F1
:1000A00030E040E05FE40E94AE1388238CF0C8018A
:1000B000B70120E030E040E05FE40E9426120E9499
:1000C0000E149B01AC01205030404040504806C007
:1000D000C801B7010E940E149B01AC01B901CA010D
:1000E0001F910F91FF90EF900895A2E7B0E0EBE72A
:1000F000F0E00C94A628982E892E712E88E0FE013F
:100100003196DF01682E1D926A94E9F729833A83BC
:100110004B835C836D837E839F829887FE01399633
:10012000DF011D928A95E9F7A986BA86CB86DC861F
:10013000ED86FE860F87188B8D819E81AF81B885F5
:10014000B7FD07C0E1961CAE1DAE1EAE1FAEE19717
:1001500064C0219581E0121608F080E0319591E0AD
:10016000131608F090E0B32FB81B81E03B1708F09E
:1001700080E0982B419531E0141608F030E0A42F70
:10018000A91B81E04A1708F080E0382B519591E0D7
:10019000151608F090E0F52FF31B81E05F1708F0CB
:1001A00080E0982B619531E0161608F030E0E62FDC
:1001B000E91B81E06E1708F080E0382B719541E073
:1001C000171608F040E0572F531B81E0751708F011
:1001D00080E0482B892D819591E0181608F090E079
:1001E000682E641A462D31E0861508F030E0932B16
:1001F000882D8195891B2983BA83AB83FC83ED838A
:100200005E834F8388872FEF3FEF4FEF5FEFE196DD
:100210002CAF3DAF4EAF5FAFE1978D859E85AF852B
:10022000B889B7FF6AC0E1964CAD5DAD6EAD7FADEC
:10023000E1974095509560957095E1964CAF5DAF14
:100240006EAF7FAFE197A19481E01A1408F080E0CF
:10025000B19491E01B1408F090E06B2D681B81E0D5
:10026000B61608F080E0982BC19421E01C1408F029
:1002700020E05C2D591B81E0C51608F080E0282B9A
:10028000D19491E01D1408F090E04D2D421B81E0C7
:10029000D41608F080E0982BE19421E01E1408F0B9
:1002A00020E03E2D391B81E0E31608F080E0282B8A
:1002B000F19491E01F1408F090E07F2D721B272F1E
:1002C00081E0F71608F080E0982B019511E01016F8
:1002D00008F010E0802F891B982F81E0091708F0A3
:1002E00080E0182B872D8195811BA9866A875B8703
:1002F0004C873D872E879F87888B99812A813B81F8
:100300004C815D816E817F81A885B9851A850B85B9
:10031000FC84ED84DE84CF84B88888E0E1E18E2E11
:10032000912C8C0E9D1EF401682E11926A94E9F7AF
:10033000998B2A8B3B8B4C8B5D8B6E8B7F8BA88F25
:100340009E01275E3F4FF90111928A95E9F7B98F17
:100350001A8F0B8FFC8EED8EDE8ECF8EB8A2298C7D
:100360003A8C4B8C5C8CED8CFE8C0F8D18A16988BF
:100370007A888B889C8821966CAE7DAE8EAE9FAEBF
:1003800021976D887E888F88988CE114F10401058F
:10039000110509F0D9C3621473048404950408F0AC
:1003A00057C100E0201600E0300601E0400600E002
:1003B000500688F41FEF211631044104510439F02E
:1003C00030F048E0E42EF12C012D112D18C0EE2460
:1003D000FF24870114C020E0221620E0320620E02E
:1003E000420621E0520630F038E1E32EF12C012DD7
:1003F000112D05C020E1E22EF12C012D112DD2018D
:10040000C1010E2C04C0B695A795979587950A94BF
:10041000D2F788599F4FDC012C9180E290E0A0E058
:10042000B0E08E199F09A00BB10B7C018D01E21A7F
:10043000F10801091109E114F10401051105D1F1D7
:100440000E2C04C0220C331C441C551C0A94D2F7F9
:10045000A40193010E2C04C0220F331F441F551F0B
:100460000A94D2F780E290E08E199F0921966CAC35
:100470007DAC8EAC9FAC219704C096948794779402
:1004800067948A95D2F7622A732A842A952A21963C
:10049000ACACBDACCEACDFAC219704C0AA0CBB1C8D
:1004A000CC1CDD1CEA94D2F72196ACAEBDAECEAE2C
:1004B000DFAE21976201EE24FF242996CCAEDDAE9B
:1004C000EEAEFFAE299792018101207030702D961B
:1004D0000CAF1DAF2EAF3FAF2D97C401B301A701E5
:1004E00096010E9484287B018C01C401B3012996E6
:1004F0002CAD3DAD4EAD5FAD29970E948428C9015A
:10050000DA013C014D01C401B3012D962CAD3DAD86
:100510004EAD5FAD2D970E9465289B01AC01870110
:10052000FF24EE242196ACACBDACCEACDFAC219761
:10053000C601AA27BB2757016801A82AB92ACA2AD7
:10054000DB2AA216B306C406D506E0F408946108B7
:10055000710881089108A20CB31CC41CD51CA214FC
:10056000B304C404D50470F0A216B306C406D506BD
:1005700048F408946108710881089108A20CB31C22
:10058000C41CD51CA21AB30AC40AD50AC601B501F7
:1005900029962CAD3DAD4EAD5FAD29970E948428C4
:1005A0007B018C01C601B50129962CAD3DAD4EAD48
:1005B0005FAD29970E948428C901DA015C016D01B1
:1005C000C601B5012D962CAD3DAD4EAD5FAD2D975D
:1005D0000E9465289B01AC018701FF24EE2421962F
:1005E0008CAD9DADAEADBFAD2197A070B070E82AC7
:1005F000F92A0A2B1B2BE216F30604071507C0F491
:100600000894A108B108C108D108E20CF31C041D2C
:10061000151DE214F3040405150550F0E216F30667
:100620000407150728F40894A108B108C108D108E7
:10063000D3019927882786017501E82AF92A0A2B10
:100640001B2B2596ECAEFDAE0EAF1FAF2597EBC46E
:10065000211431044104510471F461E070E080E040
:1006600090E020E030E040E050E00E948428C901A2
:10067000DA011C012D0100E0201600E0300601E047
:10068000400600E0500688F41FEF211631044104B3
:10069000510431F028F048E050E060E070E017C00D
:1006A00040E050E060E070E012C020E0221620E060
:1006B000320620E0420621E0520628F048E150E0F0
:1006C00060E070E004C040E150E060E070E0D20122
:1006D000C101042E04C0B695A795979587950A94F5
:1006E000D2F788599F4FDC012C91E0E2EE2EF12CDD
:1006F000012D112DD801C701841B950BA60BB70B3B
:10070000821B9109A109B1090097A105B10561F406
:1007100064015301A218B308C408D50831E0632E60
:10072000712C812C912C24C1E3968FAFE397082E76
:1007300004C0220C331C441C551C0A94D2F7EE2D25
:10074000E81B640153010E2E04C0D694C794B794DD
:10075000A7940A94D2F7A4019301E3960FACE39710
:1007600004C0220F331F441F551F0A94D2F721964D
:100770006CAC7DAC8EAC9FAC21970E2E04C09694D1
:100780008794779467940A94D2F784017301E22ADC
:10079000F32A042B152BE9AEFAAE0BAF1CAF3201D6
:1007A00088249924920181012070307061960CAFE9
:1007B0001DAF2EAF3FAF6197C601B501A4019301F4
:1007C0000E9484287B018C01C601B501A40193011C
:1007D0000E948428C901DA0165968CAF9DAFAEAF47
:1007E000BFAF6597BC01CD0161962CAD3DAD4EAD5F
:1007F0005FAD61970E9465289B01AC018701FF24D2
:10080000EE24A9ACBAACCBACDCACC601AA27BB27A2
:100810005C016D01AE28BF28C02AD12AA216B306FA
:10082000C406D50660F565966CAD7DAD8EAD9FAD09
:100830006597615070408040904065966CAF7DAF89
:100840008EAF9FAF6597A20CB31CC41CD51CA2141D
:10085000B304C404D50498F0A216B306C406D506A2
:1008600070F4615070408040904065966CAF7DAFF1
:100870008EAF9FAF6597A20CB31CC41CD51CA21AE7
:10088000B30AC40AD50AC601B501A40193010E94A6
:1008900084287B018C01C601B501A40193010E944B
:1008A0008428C901DA013C014D01C401B3016196FC
:1008B0002CAD3DAD4EAD5FAD61970E9465289B01AB
:1008C000AC018701FF24EE2489AD9AADABADBCAD80
:1008D000A070B07057016801A82AB92ACA2ADB2A79
:1008E000A216B306C406D506E0F4089461087108A0
:1008F00081089108A20CB31CC41CD51CA214B3041B
:10090000C404D50470F0A216B306C406D50648F494
:1009100008946108710881089108A20CB31CC41CDA
:10092000D51C21968CAD9DADAEADBFAD2197E396A4
:100930000FACE39704C0880F991FAA1FBB1F0A942E
:10094000D2F721968CAF9DAFAEAFBFAF2197A21A61
:10095000B30AC40AD50A6596ECACFDAC0EAD1FAD6A
:100960006597D70199278827682A792A8A2A9B2A96
:1009700082012227332769960CAF1DAF2EAF3FAF00
:100980006997A2019101407050706D962CAF3DAFF8
:100990004EAF5FAF6D97C601B50169962CAD3DAD09
:1009A0004EAD5FAD69970E9484287B018C01C60122
:1009B000B50169962CAD3DAD4EAD5FAD69970E9416
:1009C0008428C901DA01A1968CAF9DAFAEAFBFAF4D
:1009D000A197BC01CD016D962CAD3DAD4EAD5FAD87
:1009E0006D970E9465289B01AC018701FF24EE24CE
:1009F0002196ACACBDACCEACDFAC2197C601AA272A
:100A0000BB2757016801A82AB92ACA2ADB2AA216DD
:100A1000B306C406D50660F5A1966CAD7DAD8EAD6E
:100A20009FADA1976150704080409040A1966CAFFF
:100A30007DAF8EAF9FAFA197A20CB31CC41CD51C79
:100A4000A214B304C404D50498F0A216B306C406D5
:100A5000D50670F46150704080409040A1966CAF14
:100A60007DAF8EAF9FAFA197A20CB31CC41CD51C49
:100A7000A21AB30AC40AD50AC601B50169962CADFB
:100A80003DAD4EAD5FAD69970E9484287B018C011E
:100A9000C601B50169962CAD3DAD4EAD5FAD699710
:100AA0000E948428C901DA015C016D01C601B5010B
:100AB0006D962CAD3DAD4EAD5FAD6D970E94652836
:100AC0009B01AC018701FF24EE2421968CAD9DADE6
:100AD000AEADBFAD2197A070B070E82AF92A0A2BFD
:100AE0001B2BE216F30604071507C0F40894A108AF
:100AF000B108C108D108E20CF31C041D151DE21455
:100B0000F3040405150550F0E216F3060407150773
:100B100028F40894A108B108C108D108A196ECAC4A
:100B2000FDAC0EAD1FADA197D7019927882796017F
:100B30008501082B192B2A2B3B2B25960CAF1DAFBB
:100B40002EAF3FAF259772C26E147F0480069106C8
:100B500008F45FC220E0E21620E0F20621E002077E
:100B600020E0120788F43FEFE316F10401051105B8
:100B700031F028F048E050E060E070E017C040E05D
:100B800050E060E070E012C040E0E41640E0F4069F
:100B900040E0040741E0140728F048E150E060E03D
:100BA00070E004C040E150E060E070E0D801C701AF
:100BB000042E04C0B695A795979587950A94D2F709
:100BC00088599F4FDC012C9130E2A32EB12CC12C0F
:100BD000D12CD601C501841B950BA60BB70B821B2C
:100BE0009109A109B1090097A105B10599F4E6148D
:100BF000F7040805190508F4FEC121966CAC7DAC1C
:100C00008EAC9FAC2197621473048404950408F0A1
:100C1000F2C1FFC1E2968FAFE297082E04C0EE0C3E
:100C2000FF1C001F111F0A94D2F76A2D681BD20106
:100C3000C101062E04C0B695A795979587950A948D
:100C4000D2F75C016D01AE28BF28C02AD12AADAA17
:100C5000BEAACFAAD8AE72016101E2960FACE297AC
:100C600004C0CC0CDD1CEE1CFF1C0A94D2F7C9AAF0
:100C7000DAAAEBAAFCAA64015301062E04C0D6949A
:100C8000C794B794A7940A94D2F7D401C301E2960B
:100C90000FACE29704C0880F991FAA1FBB1F0A94CC
:100CA000D2F72196ECACFDAC0EAD1FAD219704C080
:100CB00016950795F794E7946A95D2F7370148019E
:100CC000682A792A8A2A9B2A6DA67EA68FA698AAC8
:100CD000EDA8FEA80FA918AD380188249924980121
:100CE000870120703070A5960CAF1DAF2EAF3FAFBF
:100CF000A597C601B501A40193010E9484287B0138
:100D00008C01C601B501A40193010E948428C90188
:100D1000DA011C012D01C201B101A5962CAD3DAD3A
:100D20004EAD5FADA5970E9465289B01AC01870180
:100D3000FF24EE24ADA4BEA4CFA4D8A8C601AA2740
:100D4000BB2757016801A82AB92ACA2ADB2AA2169A
:100D5000B306C406D50600F50894210831084108F9
:100D60005108EDA8FEA80FA918ADAE0CBF1CC01EFF
:100D7000D11EAE14BF04C006D10670F0A216B30691
:100D8000C406D50648F408942108310841085108E2
:100D9000AE0CBF1CC01ED11EA21AB30AC40AD50ACB
:100DA000C601B501A40193010E9484287B018C0136
:100DB000C601B501A40193010E948428C901DA018A
:100DC0003C014D01C401B301A5962CAD3DAD4EAD26
:100DD0005FADA5970E9465289B01AC018701FF24A8
:100DE000EE248DA59EA5AFA5B8A9A070B07057013F
:100DF0006801A82AB92ACA2ADB2AA216B306C406A1
:100E0000D50600F5089461087108810891086DA95C
:100E10007EA98FA998ADA60EB71EC81ED91EA6160C
:100E2000B706C806D90670F0A216B306C406D506E2
:100E300048F408946108710881089108A60EB71E4D
:100E4000C81ED91ED601C501821B930BA40BB50B7E
:100E500089A79AA7ABA7BCA7D101992788276401C6
:100E60005301A82AB92ACA2ADB2A2596ACAEBDAE00
:100E7000CEAEDFAE2597860175012FEF3FEF40E044
:100E800050E0E222F32204231523A60166277727E8
:100E9000AD964CAF5DAF6EAF7FAFAD97A9A8BAA8C6
:100EA000CBA8DCA86FEF7FEF80E090E0A622B7220E
:100EB000C822D92289A99AA9ABA9BCA91D01442499
:100EC0005524C801B701A60195010E946528A9967D
:100ED0006CAF7DAF8EAF9FAFA997C801B701A201DC
:100EE00091010E9465283B014C01AD966CAD7DAD32
:100EF0008EAD9FADAD97A60195010E9465287B013F
:100F00008C01AD966CAD7DAD8EAD9FADAD97A20160
:100F100091010E9465285B016C01A8019701260DD3
:100F2000371D481D591DA9966CAC7DAC8EAC9FAC8D
:100F3000A997C401AA27BB27280F391F4A1F5B1F87
:100F40002E153F054007510748F4E12CF12C61E0D4
:100F5000062F112DAE0CBF1CC01ED11ECA01AA2720
:100F6000BB27BC01CD016A0D7B1D8C1D9D1D69A495
:100F70007AA48BA49CA4661677068806990650F17D
:100F8000661577058805990509F04DC0D90199279F
:100F90008827A9962CAD3DAD4EAD5FADA9974070A9
:100FA0005070820F931FA41FB51F21962CAD3DAD2D
:100FB0004EAD5FAD2197E2960FACE29704C0220FD1
:100FC000331F441F551F0A94D2F7281739074A07C1
:100FD0005B0748F525960CAD1DAD2EAD3FAD2597B1
:100FE000015010402040304025960CAF1DAF2EAF71
:100FF0003FAF259718C066247724430121E030E0F5
:1010000040E050E025962CAF3DAF4EAF5FAF259747
:101010000DC066247724430125961CAE1DAE1EAE7E
:101020001FAE259703C0662477244301FE01B196C5
:1010300088E0DF011D928A95E9F72596ACACBDAC3E
:10104000CEACDFAC2597A9A2BAA2CBA2DCA26DA23E
:101050007EA28FA298A622962FAD22973AA14BA1ED
:101060005CA1662D7EA1DFA098A5E196ECACFDAC5D
:101070000EAD1FADE197E114F1040105110509F46E
:1010800056C0219581E0121608F080E03195E1E02C
:10109000131608F0E0E0932E981A81E0391508F055
:1010A00080E0E82B4195F1E0141608F0F0E0A42E62
:1010B000AE1A81E04A1508F080E0F82B5195E1E086
:1010C000151608F0E0E0B52EBF1A81E05B1508F0B8
:1010D00080E0E82B6195F1E0161608F0F0E0A62F0D
:1010E000AE1B81E06A1708F080E0F82B7195E1E013
:1010F000171608F0E0E0C72ECF1A81E07C1508F043
:1011000080E0E82B8D2D8195F1E0181608F0F0E0D5
:10111000D82EDE1AE1E08D1508F0E0E0FE2B892FD5
:101120008195392DA5016A2F7C2D982F9F1B8D2D20
:10113000CE58DF4FE2E10C94C228A7E7B0E0E3EA23
:10114000F8E00C94A628982E892E712E88E0FE01D6
:101150003196DF01682E1D926A94E9F729833A835C
:101160004B835C836D837E839F829887FE013996D3
:10117000DF011D928A95E9F7A986BA86CB86DC86BF
:10118000ED86FE860F87188B8D819E81AF81B88595
:10119000B7FD07C0E1961CAE1DAE1EAE1FAEE197B7
:1011A00064C0219581E0121608F080E0319591E04D
:1011B000131608F090E0B32FB81B81E03B1708F03E
:1011C00080E0982B419531E0141608F030E0A42F10
:1011D000A91B81E04A1708F080E0382B519591E077
:1011E000151608F090E0F52FF31B81E05F1708F06B
:1011F00080E0982B619531E0161608F030E0E62F7C
:10120000E91B81E06E1708F080E0382B719541E012
:10121000171608F040E0572F531B81E0751708F0B0
:1012200080E0482B892D819591E0181608F090E018
:10123000682E641A462D31E0861508F030E0932BB5
:10124000882D8195891B2983BA83AB83FC83ED8329
:101250005E834F8388872FEF3FEF4FEF5FEFE1967D
:101260002CAF3DAF4EAF5FAFE1978D859E85AF85CB
:10127000B889B7FF5AC0A19481E01A1408F080E041
:10128000B19491E01B1408F090E06B2D681B81E095
:10129000B61608F080E0982BC19421E01C1408F0E9
:1012A00020E05C2D591B81E0C51608F080E0282B5A
:1012B000D19491E01D1408F090E04D2D421B81E087
:1012C000D41608F080E0982BE19421E01E1408F079
:1012D00020E03E2D391B81E0E31608F080E0282B4A
:1012E000F19491E01F1408F090E07F2D721B272FDE
:1012F00081E0F71608F080E0982B019511E01016B8
:1013000008F010E0802F891B982F81E0091708F062
:1013100080E0182B872D8195811BA9866A875B87C2
:101320004C873D872E879F87888B99812A813B81B7
:101330004C815D816E817F81A885B9851A850B8579
:10134000FC84ED84DE84CF84B88888E0E9E18E2EC9
:10135000912C8C0E9D1EF401682E11926A94E9F76F
:10136000998F2A8F3B8F4C8F5D8F6E8F7F8FA8A3B5
:101370009E012F5D3F4FF90111928A95E9F7B9A3BC
:101380001AA30BA3FCA2EDA2DEA2CFA2B8A629A0AD
:101390003AA04BA05CA0ADA0BEA0CFA0D8A4498D20
:1013A0005A8D6B8D7C8DE5964FAFE597E6965FAFD6
:1013B000E697E7966FAFE797E8967FAFE897E896EE
:1013C0006CAC7DAC8EAC9FACE8972D966CAE7DAED0
:1013D0008EAE9FAE2D978D8D9E8D2F8D38A13C01A9
:1013E000490161966CAE7DAE8EAE9FAE6197A11441
:1013F000B104C104D10409F028C362147304840445
:10140000950408F00EC100E0201600E0300601E06F
:10141000400600E0500688F41FEF21163104410415
:10142000510439F030F088E0E82EF12C012D112D17
:1014300018C0EE24FF24870114C020E0221620E00B
:10144000320620E0420621E0520630F0B8E1EB2EF1
:10145000F12C012D112D05C0A0E1EA2EF12C012D5A
:10146000112DD201C1010E2C04C0B695A7959795F8
:1014700087950A94D2F788599F4FDC012C9180E21E
:1014800090E0A0E0B0E08E199F09A00BB10B5C01C9
:101490006D01A21AB108C108D1086596ACAEBDAE07
:1014A000CEAEDFAE6597A114B104C104D10409F436
:1014B00045C062966FAD6297062E04C0220C331CA5
:1014C000441C551C0A94D2F7A4019301062E04C0B3
:1014D000220F331F441F551F0A94D2F780E290E079
:1014E0008A199B09E896CCACDDACEEACFFACE89772
:1014F00004C0F694E794D794C7948A95D2F78701ED
:101500007601E22AF32A042B152B6196ECAEFDAE90
:101510000EAF1FAF6197E8960CAD1DAD2EAD3FAD80
:10152000E89704C0000F111F221F331F6A95D2F7DE
:101530002D960CAF1DAF2EAF3FAF2D9732018824F3
:101540009924A20191014070507069962CAF3DAF73
:101550004EAF5FAF699761966CAD7DAD8EAD9FADBF
:101560006197A40193010E9484287B018C016196FC
:101570006CAD7DAD8EAD9FAD6197A40193010E94CE
:101580008428CA01B90169962CAD3DAD4EAD5FAD61
:1015900069970E9465289B01AC018701FF24EE2416
:1015A0002D96ACACBDACCEACDFAC2D97C601AA2756
:1015B000BB2757016801A82AB92ACA2ADB2AA21622
:1015C000B306C406D50690F4A20CB31CC41CD51CEB
:1015D000A214B304C404D50448F0A216B306C4068A
:1015E000D50620F4A20CB31CC41CD51CA21AB30A45
:1015F000C40AD50AC601B501A40193010E9484283A
:101600007B018C01C601B501A40193010E948428CD
:10161000CA01B90169962CAD3DAD4EAD5FAD69977C
:10162000C8C1211431044104510471F461E070E037
:1016300080E090E020E030E040E050E00E9484282C
:10164000C901DA011C012D0100E0201600E030067E
:1016500001E0400600E0500688F41FEF2116310437
:101660004104510439F030F068E0E62EF12C012DF0
:10167000112D18C0EE24FF24870114C020E022168B
:1016800020E0320620E0420621E0520630F058E128
:10169000E52EF12C012D112D05C040E1E42EF12C99
:1016A000012D112DD201C1010E2C04C0B695A795B4
:1016B000979587950A94D2F788599F4FDC012C9112
:1016C00030E2A32EB12CC12CD12CD601C5018E192C
:1016D0009F09A00BB10B7C018D01E21AF1080109F1
:1016E00011096596ECAEFDAE0EAF1FAF6597E11424
:1016F000F1040105110539F464015301A218B3087E
:10170000C408D508ECC06296FFAC6297E496FFAEC1
:10171000E4970F2C04C0220C331C441C551C0A9463
:10172000D2F78A2D8F1964015301082E04C0D69474
:10173000C794B794A7940A94D2F7A401930104C064
:10174000220F331F441F551FFA94D2F7E8966CAC52
:101750007DAC8EAC9FACE89704C096948794779448
:1017600067948A95D2F784017301E22AF32A042B45
:10177000152B2996ECAEFDAE0EAF1FAF29973201A7
:101780008824992492018101207030706D960CAFED
:101790001DAF2EAF3FAF6D97C601B501A4019301F8
:1017A0000E9484287B018C01C601B501A40193012C
:1017B0000E948428CA01B9016D962CAD3DAD4EAD95
:1017C0005FAD6D970E9465289B01AC018701FF24E6
:1017D000EE242996ACACBDACCEACDFAC2997C601EB
:1017E000AA27BB275C016D01AE28BF28C02AD12AD9
:1017F000A216B306C406D50690F4A20CB31CC41CF2
:10180000D51CA214B304C404D50448F0A216B30630
:10181000C406D50620F4A20CB31CC41CD51CA21A05
:10182000B30AC40AD50AC601B501A40193010E94F6
:1018300084287B018C01C601B501A40193010E949B
:101840008428CA01B9016D962CAD3DAD4EAD5FAD9A
:101850006D970E9465289B01AC018701FF24EE244F
:1018600029968CAD9DADAEADBFAD2997A070B0707F
:1018700057016801A82AB92ACA2ADB2AA216B30688
:10188000C406D50690F4A20CB31CC41CD51CA2142B
:10189000B304C404D50448F0A216B306C406D506A2
:1018A00020F4A20CB31CC41CD51CE896ECACFDAC17
:1018B0000EAD1FADE897E4960FACE49704C0EE0CB4
:1018C000FF1C001F111F0A94D2F72D96ECAEFDAE3F
:1018D0000EAF1FAF2D97A21AB30AC40AD50A320160
:1018E000882499249201810120703070A1960CAF58
:1018F0001DAF2EAF3FAFA197C601B501A401930163
:101900000E9484287B018C01C601B501A4019301CA
:101910000E948428CA01B901A1962CAD3DAD4EADFF
:101920005FADA1970E9465289B01AC018701FF2450
:10193000EE242D96ACACBDACCEACDFAC2D97C60181
:10194000AA27BB2757016801A82AB92ACA2ADB2A75
:10195000A216B306C406D50690F4A20CB31CC41C90
:10196000D51CA214B304C404D50448F0A216B306CF
:10197000C406D50620F4A20CB31CC41CD51CA21AA4
:10198000B30AC40AD50AC601B501A40193010E9495
:1019900084287B018C01C601B501A40193010E943A
:1019A0008428CA01B901A1962CAD3DAD4EAD5FAD05
:1019B000A1970E9465289B01AC018701FF24EE24BA
:1019C0002D968CAD9DADAEADBFAD2D97A070B07016
:1019D000E82AF92A0A2B1B2BE216F306040715073F
:1019E00090F4E20CF31C041D151DE214F30404052D
:1019F000150548F0E216F3060407150720F4E20C7B
:101A0000F31C041D151DE21AF30A040B150BD80173
:101A1000C70162960FAC629704C0B695A7959795DB
:101A200087950A94D2F789A79AA7ABA7BCA71DA64A
:101A30001EA61FA618AA898B8AA58A8B8BA58B8BBD
:101A40008CA58C8B8DA58D8B2FC36A147B048C0485
:101A50009D0448F4498B5A8B6B8B7C8B8D8B9E8BB2
:101A60002F8B388F27C300E0A01600E0B00601E0FE
:101A7000C00600E0D00688F41FEFA116B104C1042F
:101A8000D10439F030F028E0E22EF12C012D112D97
:101A900018C0EE24FF24870114C020E0A21620E025
:101AA000B20620E0C20621E0D20630F098E1E92E2D
:101AB000F12C012D112D05C080E1E82EF12C012D16
:101AC000112DD601C5010E2C04C0B695A79597958A
:101AD00087950A94D2F788599F4FDC012C9180E2B8
:101AE00090E0A0E0B0E08E199F09A00BB10B821B23
:101AF0009109A109B1090097A105B10509F059C0E3
:101B0000A614B704C804D90470F0E896ECACFDAC98
:101B10000EAD1FADE897E214F3040405150518F4A3
:101B2000D801C7012FC0E8968CAD9DADAEADBFAD5D
:101B3000E89782199309A409B509A40193012A1908
:101B40003B094C095D09AA24BB246501E8966CACED
:101B50007DAC8EAC9FACE897681679068A069B062A
:101B600028F411E0A12EB12CC12CD12C79018A01CD
:101B7000EA18FB080C091D096196ECAEFDAE0EAF2C
:101B80001FAF619789A79AA7ABA7BCA761960CADB9
:101B90001DAD2EAD3FAD61970DA71EA72FA738AB8A
:101BA000898B8AA58A8B8BA58B8B8CA58C8B0D8BB7
:101BB0007BC2E3968FAFE397A6019501082E04C080
:101BC000220F331F441F551F0A94D2F710E2181B2F
:101BD000E2961FAFE297D201C101012E04C0B69573
:101BE000A795979587950A94D2F75C016D01A22A73
:101BF000B32AC42AD52A2596ACAEBDAECEAEDFAE92
:101C0000259772016101E3960FACE39704C0CC0CF9
:101C1000DD1CEE1CFF1C0A94D2F72196CCAEDDAE83
:101C2000EEAEFFAE219764015301012E04C0D6949D
:101C3000C794B794A7940A94D2F7A4019301E396AA
:101C40000FACE39704C0220F331F441F551F0A94A3
:101C5000D2F7E8968CAD9DADAEADBFADE89704C0B0
:101C6000B695A795979587951A95D2F77C018D0122
:101C7000E22AF32A042B152BE9AEFAAE0BAF1CAF08
:101C8000E8960CAD1DAD2EAD3FADE897E3960FACD9
:101C9000E39704C0000F111F221F331F0A94D2F7CD
:101CA0000DAB1EAB2FAB38AF25962CAD3DAD4EAD79
:101CB0005FAD25973A018824992440705070A5960D
:101CC0002CAF3DAF4EAF5FAFA597C601B501A401E4
:101CD00093010E9484287B018C01C601B501A401F7
:101CE00093010E948428C901DA011C012D01C2015F
:101CF000B101A5962CAD3DAD4EAD5FADA5970E944F
:101D000065289B01AC018701FF24EE24A9ACBAAC85
:101D1000CBACDCACC601AA27BB2757016801A82AB7
:101D2000B92ACA2ADB2AA216B306C406D50610F5BC
:101D3000089421083108410851082596ECACFDAC07
:101D40000EAD1FAD2597AE0CBF1CC01ED11EAE142C
:101D5000BF04C006D10670F0A216B306C406D506AD
:101D600048F408942108310841085108AE0CBF1C02
:101D7000C01ED11EA21AB30AC40AD50AC601B501F3
:101D8000A40193010E9484287B018C01C601B50146
:101D9000A40193010E948428C901DA013C014D018C
:101DA000C401B301A5962CAD3DAD4EAD5FADA59779
:101DB0000E9465289B01AC018701FF24EE2489ADB8
:101DC0009AADABADBCADA070B07057016801A82A48
:101DD000B92ACA2ADB2AA216B306C406D50610F50C
:101DE0000894610871088108910825966CAD7DAD55
:101DF0008EAD9FAD2597A60EB71EC81ED91EA6167E
:101E0000B706C806D90670F0A216B306C406D506F2
:101E100048F408946108710881089108A60EB71E5D
:101E2000C81ED91ED601C501821B930BA40BB50B8E
:101E300089AB9AABABABBCABD101992788278401A6
:101E40007301E82AF92A0A2B1B2B8FEFA82E8FEF9C
:101E5000B82EC12CD12CAE20BF20C022D1227801B7
:101E60000027112721966CAC7DAC8EAC9FAC2197DE
:101E70002FEF3FEF40E050E0622273228422952250
:101E800021966CAD7DAD8EAD9FAD2197AC016627DF
:101E90007727AD964CAF5DAF6EAF7FAFAD97C60104
:101EA000B501A40193010E946528A9966CAF7DAF8E
:101EB0008EAF9FAFA997C601B501AD962CAD3DADD4
:101EC0004EAD5FADAD970E9465281B012C01C80186
:101ED000B701A40193010E9465285B016C01C80150
:101EE000B701AD962CAD3DAD4EAD5FADAD970E9447
:101EF00065287B018C01A6019501220D331D441D2F
:101F0000551DA9966CAC7DAC8EAC9FACA997C40155
:101F1000AA27BB27280F391F4A1F5B1F2A153B051D
:101F20004C055D0548F4812C912CE1E0AE2EB12CDE
:101F3000E80CF91C0A1D1B1DCA01AA27BB27570163
:101F40006801A80EB91ECA1EDB1EA901332722276D
:101F5000A9968CAD9DADAEADBFADA997A070B07088
:101F6000280F391F4A1F5B1FE9A8FAA80BA91CA953
:101F7000EA14FB040C051D0570F0AE14BF04C00686
:101F8000D10689F56DA97EA98FA998AD621773074F
:101F90008407950740F5DA01C90121966CAC7DAC48
:101FA0008EAC9FAC219786199709A809B909259687
:101FB000ECACFDAC0EAD1FAD2597AE18BF08C00A46
:101FC000D10AEE24FF248701281739074A075B0747
:101FD00028F421E0E22EF12C012D112DAE18BF08BE
:101FE000C00AD10A02C0DA01C9016DA87EA88FA873
:101FF00098AC681A790A8A0A9B0A09A91AA92BA916
:102000003CA90A191B092C093D0958016901222420
:10201000332421012DA93EA94FA958AD2615370516
:102020004805590528F481E0282E312C412C512CEB
:1020300086017501E218F30804091509A801970142
:10204000E2960FACE29704C0220F331F441F551FC6
:102050000A94D2F7D401C301E3960FACE39704C00E
:10206000B695A795979587950A94D2F7282B392B83
:102070004A2B5B2B29A73AA74BA75CA7E3960FAC8B
:10208000E39704C016950795F794E7940A94D2F75E
:10209000EDA6FEA60FA718AB298B8AA58A8B8BA568
:1020A0008B8B8CA58C8BED8A8EA58E8B8FA58F8BC1
:1020B00088A9888FE1964CAD5DAD6EAD7FADE1979F
:1020C000411551056105710509F467C089892A899F
:1020D0003B894C895D89AE89BF89188DF82FF195B0
:1020E00091E01F1608F090E0822F819521E01816EC
:1020F00008F020E0E82FE91B91E08E1708F090E04F
:10210000292B832F819531E0181608F030E0782FC5
:10211000721B91E0871708F090E0392B842F81958E
:1021200021E0181608F020E0682F631B91E0861765
:1021300008F090E0292B852F819531E0181608F0E2
:1021400030E0582F521B91E0851708F090E0392BB2
:102150008A2F819521E0181608F020E0482F431BB4
:1021600091E0841708F090E0292B8B2F819591E066
:10217000181608F090E0382F321B21E0831708F082
:1021800020E0922B812F8195891BF98BEA8B7B8B29
:102190006C8B5D8B4E8B3F8B888F29893A894B895D
:1021A0005C896D897E898F89988DC958DF4FE2E1FE
:1021B0000C94C228A0E0B0E0E0EEF0E10C94A62878
:1021C000DC012B01FA019C91923008F439C1EB013A
:1021D0008881823008F433C1943069F4843009F086
:1021E0002FC111969C9111978981981709F428C1E4
:1021F000A0E6B0E025C1843009F421C18230A9F401
:10220000923009F01DC19A01AD0188E0EA01099000
:10221000AE01E90109929E018150C1F7E201898175
:1022200011969C918923818308C1923009F407C1DA
:1022300012962D903C901397EB018A819B81149606
:10224000AD90BD90CD90DC901797EC80FD800E8115
:102250001F819101281B390BB90137FF04C0662784
:102260007727621B730B603271050CF061C0121688
:1022700013066CF537014801062E04C09694879426
:10228000779467940A94D2F721E030E040E050E080
:1022900004C0220F331F441F551F6A95D2F72150E7
:1022A0003040404050402E213F21402351232115F2
:1022B00031054105510521F021E030E040E050E0DA
:1022C00079018A01E628F728082919293CC0232B1F
:1022D000D1F1260E371E35014601062E04C0969414
:1022E0008794779467940A94D2F721E030E040E035
:1022F00050E004C0220F331F441F551F6A95D2F7C8
:1023000021503040404050402A213B214C215D214A
:10231000211531054105510521F021E030E040E073
:1023200050E059016A01A628B728C828D9280BC04F
:10233000821593052CF01C01AA24BB24650103C05F
:10234000EE24FF24870111969C91D20111968C9165
:10235000981709F445C0992339F0A80197012A1963
:102360003B094C095D0906C0A60195012E193F09DC
:10237000400B510B57FD08C0118233822282248307
:102380003583468357831DC081E081833382228257
:1023900088279927DC01821B930BA40BB50B848340
:1023A0009583A683B7830DC0220F331F441F551F8B
:1023B0002483358346835783828193810197938356
:1023C00082832481358146815781DA01C9010197D1
:1023D000A109B1098F5F9F4FAF4FBF4328F30BC0D7
:1023E000918333822282EA0CFB1C0C1D1D1DE482AA
:1023F000F5820683178383E08083248135814681BB
:10240000578157FF1AC0C901AA2797FDA095BA2F77
:1024100081709070A070B07056954795379527954C
:10242000822B932BA42BB52B84839583A683B78310
:1024300082819381019693838283DF0101C0D2015F
:10244000CD01CDB7DEB7E2E10C94C228A0E2B0E046
:10245000ECE2F2E10C94B22869837A838B839C834B
:102460002D833E834F835887E9E0EE2EF12CEC0E4E
:10247000FD1ECE010196B7010E9437158E010F5E39
:102480001F4FCE010596B8010E9437158A8991E049
:1024900089278A8BC701B801AE01475E5F4F0E9452
:1024A000DA100E946214A096E6E00C94CE28A0E216
:1024B000B0E0EDE5F2E10C94B22869837A838B8376
:1024C0009C832D833E834F835887F9E0EF2EF12CB8
:1024D000EC0EFD1ECE010196B7010E9437158E014C
:1024E0000F5E1F4FCE010596B8010E943715C70138
:1024F000B801AE01475E5F4F0E94DA100E9462147D
:10250000A096E6E00C94CE28A0E2B0E0EAE8F2E182
:102510000C94A62869837A838B839C832D833E83C6
:102520004F835887CE010196BE01675F7F4F0E949F
:102530003715CE010596BE016F5E7F4F0E9437159D
:102540009985923088F089898230C8F0943019F4E6
:10255000823051F404C0843029F4923081F480E652
:1025600090E0C6C0923049F420E09A858A89981399
:1025700021E02A87CE010996BBC0823049F420E0D1
:102580009A858A89981321E02A8BCE014196B0C0A2
:102590002D843E844F8458886D887E888F88988CDF
:1025A000EE24FF248701AA24BB24650140E050E00B
:1025B00060E070E0E0E0F0E0C10181709070892B94
:1025C000E9F0E60CF71C081D191D9A01AB012A0D54
:1025D0003B1D4C1D5D1D80E090E0A0E0B0E0E614E6
:1025E000F7040805190520F481E090E0A0E0B0E0D0
:1025F000BA01A901480F591F6A1F7B1FAA0CBB1CF7
:10260000CC1CDD1C97FE08C081E090E0A0E0B0E0AB
:10261000A82AB92ACA2ADB2A3196E032F10549F004
:10262000660C771C881C991C569447943794279401
:10263000C3CFFA85EA892B893C898B859C85280F35
:10264000391F2E5F3F4F17C0CA0181709070892BD0
:1026500061F016950795F794E79480E090E0A0E08C
:10266000B0E8E82AF92A0A2B1B2B7695679557952F
:1026700047952F5F3F4F77FDE7CF0CC0440F551FA5
:10268000661F771F17FD4160EE0CFF1C001F111F16
:1026900021503040403090E0590790E0690790E4C5
:1026A000790760F32B8F3C8FDB01CA018F77907025
:1026B000A070B07080349105A105B10561F447FDAB
:1026C0000AC0E114F1040105110529F0405C5F4FD7
:1026D0006F4F7F4F40781A8EFE1711F081E08A8F7E
:1026E0004D8F5E8F6F8F78A383E0898FCE014996DF
:1026F0000E946214A096E2E10C94C228A8E1B0E026
:10270000E4E8F3E10C94B22869837A838B839C8399
:102710002D833E834F83588789E0E82EF12CEC0E01
:10272000FD1ECE010196B7010E9437158E010F5E86
:102730001F4FCE010596B8010E943715898582305A
:1027400040F08989823028F0C701B8010E94AF1596
:1027500001C08FEF6896E6E00C94CE28A8E1B0E0C7
:10276000E4EBF3E10C94B22869837A838B839C8336
:102770002D833E834F83588789E0E82EF12CEC0EA1
:10278000FD1ECE010196B7010E9437158E010F5E26
:102790001F4FCE010596B8010E94371589858230FA
:1027A00040F08989823028F0C701B8010E94AF1536
:1027B00001C08FEF6896E6E00C94CE28A8E1B0E067
:1027C000E4EEF3E10C94B22869837A838B839C83D3
:1027D0002D833E834F83588789E0E82EF12CEC0E41
:1027E000FD1ECE010196B7010E9437158E010F5EC6
:1027F0001F4FCE010596B8010E943715898582309A
:1028000040F08989823028F0C701B8010E94AF15D5
:1028100001C081E06896E6E00C94CE28ACE0B0E020
:10282000E4E1F4E10C94B62869837A838B839C837A
:10283000CE010196BE016B5F7F4F0E9437158D81DF
:10284000823061F1823050F1843021F48E8188230E
:1028500051F12EC02F81388537FD20C06E812F3178
:1028600031051CF06623F9F023C08EE190E0821B55
:10287000930B29853A854B855C8504C05695479511
:10288000379527958A95D2F76623B1F050954095F4
:10289000309521953F4F4F4F5F4F0EC020E030E005
:1028A00040E050E009C02FEF3FEF4FEF5FE704C07B
:1028B00020E030E040E050E8B901CA012C96E2E0A7
:1028C0000C94D228DF92EF92FF920F931F93FC019A
:1028D000E480F58006811781D1808081823048F4C0
:1028E00080E090E0A0E1B0E0E82AF92A0A2B1B2B57
:1028F000A5C0843009F49FC0823021F4EE24FF2467
:10290000870105C0E114F1040105110519F4E0E0A7
:10291000F0E096C0628173819FEF623879070CF016
:102920005BC022E83FEF261B370B2A3131052CF024
:1029300020E030E040E050E02AC0B801A701022EBC
:1029400004C076956795579547950A94D2F781E02C
:1029500090E0A0E0B0E004C0880F991FAA1FBB1F41
:102960002A95D2F70197A109B1098E219F21A023B1
:10297000B1230097A105B10521F081E090E0A0E02E
:10298000B0E09A01AB01282B392B4A2B5B2BDA01E3
:10299000C9018F779070A070B07080349105A10547
:1029A000B10539F427FF09C0205C3F4F4F4F5F4FFF
:1029B00004C0215C3F4F4F4F5F4FE0E0F0E020301C
:1029C000A0E03A07A0E04A07A0E45A0710F0E1E0CF
:1029D000F0E079018A0127C06038710564F5FB01D8
:1029E000E158FF4FD801C7018F779070A070B07089
:1029F00080349105A105B10539F4E7FE0DC080E4EE
:102A000090E0A0E0B0E004C08FE390E0A0E0B0E090
:102A1000E80EF91E0A1F1B1F17FF05C01695079524
:102A2000F794E794319687E016950795F794E79425
:102A30008A95D1F705C0EE24FF248701EFEFF0E07F
:102A40006E2F679566276795902F9F77D794DD2423
:102A5000D7948E2F8695492F462B582F5D29B70185
:102A6000CA011F910F91FF90EF90DF900895FC0134
:102A7000DB01408151812281622F6F7770E0221F3C
:102A80002227221F9381892F880F822B282F30E045
:102A9000991F9927991F11969C931197211531051C
:102AA000A9F5411551056105710511F482E037C0A2
:102AB00082E89FEF13969C938E9312979A01AB0135
:102AC00067E0220F331F441F551F6A95D1F783E03B
:102AD0008C930DC0220F331F441F551F12968D91EA
:102AE0009C911397019713969C938E931297203085
:102AF00080E0380780E0480780E4580758F31496D0
:102B00002D933D934D935C93179708952F3F310577
:102B100079F4411551056105710519F484E08C9330
:102B2000089564FF03C081E08C9312C01C9210C012
:102B30002F57304013963C932E93129783E08C933B
:102B400087E0440F551F661F771F8A95D1F7706481
:102B500014964D935D936D937C93179708951F93EF
:102B6000DC01FB019C91923008F447C080818230E7
:102B700008F443C0943051F411961C91843099F5B7
:102B80008181682F70E0611B71093FC0843021F0A2
:102B9000923031F48230B9F18181882389F12DC0DE
:102BA00011961C9111978230F1F081811817D9F498
:102BB00012962D913C9113978281938182179307EE
:102BC00094F028173907BCF014968D919D910D90C3
:102BD000BC91A02D24813581468157812817390762
:102BE0004A075B0718F4112341F00AC082179307C4
:102BF000A407B50740F4112319F061E070E005C0A7
:102C00006FEF7FEF02C060E070E0CB011F9108958D
:102C1000DF93CF9300D000D0CDB7DEB789836A832E
:102C20008981282F30E03C832B838B819C818130EC
:102C3000910579F12B813C812230310509F458C08E
:102C40008B819C81009709F071C0ABE5B0E0EBE5AA
:102C5000F0E0808180648C93A5E5B0E0E5E5F0E0EC
:102C60008081982F9E7F8A818170892B8C93A5E526
:102C7000B0E0E5E5F0E08081282F2D7F8A81869500
:102C8000882F90E081709070880F991F822B8C9311
:102C90004DC0ABE5B0E0EBE5F0E0808180688C935F
:102CA000A5E5B0E0E5E5F0E08081282F2B7F8A8163
:102CB000882F90E081709070880F991F880F991F5E
:102CC000822B8C93A5E5B0E0E5E5F0E08081282F2C
:102CD000277F8A818695882F90E081709070880F79
:102CE000991F880F991F880F991F822B8C931EC0E4
:102CF000ABE5B0E0EBE5F0E0808180628C93A4E589
:102D0000B0E0E4E5F0E08081282F2F7B8A81882FD6
:102D100090E0817090700024969587950794969521
:102D200087950794982F802D822B8C9378940F9001
:102D30000F900F900F90CF91DF910895DF93CF9375
:102D400000D00F92CDB7DEB789838981282F30E07C
:102D50003B832A838A819B818130910589F02A8176
:102D60003B8122303105A1F08A819B810097B9F423
:102D7000ABE5B0E0EBE5F0E080818F7B8C930FC09A
:102D8000ABE5B0E0EBE5F0E080818F778C9307C096
:102D9000ABE5B0E0EBE5F0E080818F7D8C930F90A8
:102DA0000F900F90CF91DF910895DF93CF9300D0D4
:102DB0000F92CDB7DEB79A8389836B838B81882F7F
:102DC00090E0880F991FFC01E056FE4F89819A819F
:102DD000918380830F900F900F90CF91DF91089592
:102DE0001F920F920FB60F9211242F933F934F9380
:102DF0005F936F937F938F939F93AF93BF93EF9363
:102E0000FF93DF93CF93CDB7DEB7E091A001F091B0
:102E1000A1010995CF91DF91FF91EF91BF91AF9102
:102E20009F918F917F916F915F914F913F912F91E2
:102E30000F900FBE0F901F9018951F920F920FB614
:102E40000F9211242F933F934F935F936F937F9330
:102E50008F939F93AF93BF93EF93FF93DF93CF93A2
:102E6000CDB7DEB7E091A201F091A3010995CF9112
:102E7000DF91FF91EF91BF91AF919F918F917F91E2
:102E80006F915F914F913F912F910F900FBE0F90D7
:102E90001F9018951F920F920FB60F9211242F9327
:102EA0003F934F935F936F937F938F939F93AF93D2
:102EB000BF93EF93FF93DF93CF93CDB7DEB7E0914E
:102EC000A401F091A5010995CF91DF91FF91EF91B8
:102ED000BF91AF919F918F917F916F915F914F9132
:102EE0003F912F910F900FBE0F901F901895DF9379
:102EF000CF93CDB7DEB72B970FB6F894DEBF0FBEDA
:102F0000CDBF8A836B838A818695869586958983D2
:102F10008A8187708A838B81282F30E03B872A87BC
:102F20008A859B858130910509F4C9C02A853B8536
:102F30002230310509F485C18A859B85009709F007
:102F40003DC28981282F30E0398728878885998577
:102F50008130910509F43EC028853985223031053C
:102F60002CF488859985009771F028C228853985C9
:102F70002230310509F455C0888599858330910543
:102F800009F476C01BC2AAE3B0E0EAE3F0E0808176
:102F9000482F8A81282F30E081E090E002C0880F1E
:102FA000991F2A95E2F7809584238C93ABE3B0E0D8
:102FB000EBE3F0E08081482F8A81282F30E081E028
:102FC00090E0022E02C0880F991F0A94E2F7842B2A
:102FD0008C93F4C1A7E3B0E0E7E3F0E08081482FF1
:102FE0008A81282F30E081E090E002C0880F991F8D
:102FF0002A95E2F7809584238C93A8E3B0E0E8E378
:10300000F0E08081482F8A81282F30E081E090E035
:10301000022E02C0880F991F0A94E2F7842B8C932A
:10302000CDC1A4E3B0E0E4E3F0E08081482F8A81E1
:10303000282F30E081E090E002C0880F991F2A9588
:10304000E2F7809584238C93A5E3B0E0E5E3F0E01C
:103050008081482F8A81282F30E081E090E0022E85
:1030600002C0880F991F0A94E2F7842B8C93A6C1A3
:10307000A1E3B0E0E1E3F0E08081482F8A81282FCE
:1030800030E081E090E002C0880F991F2A95E2F7B6
:10309000809584238C93A2E3B0E0E2E3F0E08081AA
:1030A000482F8A81282F30E081E090E0022E02C074
:1030B000880F991F0A94E2F7842B8C937FC1898132
:1030C000282F30E03F832E838E819F8181309105B0
:1030D00009F43FC02E813F81223031052CF48E81CE
:1030E0009F81009771F06AC12E813F8122303105A6
:1030F00009F457C08E819F818330910509F479C00E
:103100005DC1AAE3B0E0EAE3F0E08081482F8A8164
:10311000282F30E081E090E002C0880F991F2A95A7
:10312000E2F7809584238C93ABE3B0E0EBE3F0E02F
:103130008081482F8A81282F30E081E090E0022EA4
:1031400002C0880F991F0A94E2F7809584238C931C
:1031500035C1A7E3B0E0E7E3F0E08081482F8A8142
:10316000282F30E081E090E002C0880F991F2A9557
:10317000E2F7809584238C93A8E3B0E0E8E3F0E0E5
:103180008081482F8A81282F30E081E090E0022E54
:1031900002C0880F991F0A94E2F7809584238C93CC
:1031A0000DC1A4E3B0E0E4E3F0E08081482F8A8120
:1031B000282F30E081E090E002C0880F991F2A9507
:1031C000E2F7809584238C93A5E3B0E0E5E3F0E09B
:1031D0008081482F8A81282F30E081E090E0022E04
:1031E00002C0880F991F0A94E2F7809584238C937C
:1031F000E5C0A1E3B0E0E1E3F0E08081482F8A81FF
:10320000282F30E081E090E002C0880F991F2A95B6
:10321000E2F7809584238C93A2E3B0E0E2E3F0E050
:103220008081482F8A81282F30E081E090E0022EB3
:1032300002C0880F991F0A94E2F7809584238C932B
:10324000BDC08981282F30E03D832C838C819D81F6
:103250008130910509F43EC02C813D812230310539
:103260002CF48C819D81009771F0A8C02C813D8148
:103270002230310509F455C08C819D818330910540
:1032800009F476C09BC0AAE3B0E0EAE3F0E08081F5
:10329000482F8A81282F30E081E090E002C0880F1B
:1032A000991F2A95E2F7842B8C93ABE3B0E0EBE314
:1032B000F0E08081482F8A81282F30E081E090E083
:1032C000022E02C0880F991F0A94E2F7809584238A
:1032D0008C9374C0A7E3B0E0E7E3F0E08081482F6F
:1032E0008A81282F30E081E090E002C0880F991F8A
:1032F0002A95E2F7842B8C93A8E3B0E0E8E3F0E0B2
:103300008081482F8A81282F30E081E090E0022ED2
:1033100002C0880F991F0A94E2F7809584238C934A
:103320004DC0A4E3B0E0E4E3F0E08081482F8A815F
:10333000282F30E081E090E002C0880F991F2A9585
:10334000E2F7842B8C93A5E3B0E0E5E3F0E0808125
:10335000482F8A81282F30E081E090E0022E02C0C1
:10336000880F991F0A94E2F7809584238C9326C0D6
:10337000A1E3B0E0E1E3F0E08081482F8A81282FCB
:1033800030E081E090E002C0880F991F2A95E2F7B3
:10339000842B8C93A2E3B0E0E2E3F0E08081482F3D
:1033A0008A81282F30E081E090E0022E02C0880F51
:1033B000991F0A94E2F7809584238C932B960FB67D
:1033C000F894DEBF0FBECDBFCF91DF910895DF939C
:1033D000CF93CDB7DEB729970FB6F894DEBF0FBEF7
:1033E000CDBF8A836B838A818695869586958983EE
:1033F0008A8187708A838B81282F30E039872887DC
:1034000088859985009739F02885398521303105DF
:1034100009F475C0E2C08981282F30E03F832E83F4
:103420008E819F818130910559F12E813F8122301B
:1034300031052CF48E819F81009769F0CEC02E81DA
:103440003F812230310589F18E819F818330910542
:1034500009F440C0C2C0ABE3B0E0EBE3F0E0808130
:10346000482F8A81282F30E081E090E0022E02C0B0
:10347000880F991F0A94E2F7809584238C93ADC03E
:10348000A8E3B0E0E8E3F0E08081482F8A81282FAC
:1034900030E081E090E0022E02C0880F991F0A946C
:1034A000E2F7809584238C9398C0A5E3B0E0E5E330
:1034B000F0E08081482F8A81282F30E081E090E081
:1034C000022E02C0880F991F0A94E2F78095842388
:1034D0008C9383C0A2E3B0E0E2E3F0E08081482F68
:1034E0008A81282F30E081E090E0022E02C0880F10
:1034F000991F0A94E2F7809584238C936EC089818A
:10350000282F30E03D832C838C819D818130910573
:1035100049F12C813D81223031052CF48C819D8133
:10352000009761F05AC02C813D812230310571F144
:103530008C819D8183309105E9F14FC0ABE3B0E010
:10354000EBE3F0E08081482F8A81282F30E081E092
:1035500090E0022E02C0880F991F0A94E2F7842B94
:103560008C933BC0A8E3B0E0E8E3F0E08081482F13
:103570008A81282F30E081E090E0022E02C0880F7F
:10358000991F0A94E2F7842B8C9327C0A5E3B0E03F
:10359000E5E3F0E08081482F8A81282F30E081E048
:1035A00090E0022E02C0880F991F0A94E2F7842B44
:1035B0008C9313C0A2E3B0E0E2E3F0E08081482FF7
:1035C0008A81282F30E081E090E0022E02C0880F2F
:1035D000991F0A94E2F7842B8C9329960FB6F894DE
:1035E000DEBF0FBECDBFCF91DF910895DF93CF93A4
:1035F00000D000D0CDB7DEB789836A838981282FB8
:1036000030E03C832B838B819C8181309105D1F00C
:103610002B813C81223031052CF48B819C810097D9
:1036200061F01EC02B813C812230310581F08B81FD
:103630009C818330910581F013C0EBE3F0E08A8137
:1036400080830EC0E8E3F0E08A81808309C0E5E36F
:10365000F0E08A81808304C0E2E3F0E08A81808325
:103660000F900F900F900F90CF91DF910895DF93FF
:10367000CF9300D000D00F92CDB7DEB78B838B8174
:103680008695869586958A838B8187708B83198230
:103690008A81282F30E03D832C834C815D8141302D
:1036A000510541F18C819D818230910534F42C814A
:1036B0003D812115310561F052C04C815D81423060
:1036C000510551F18C819D8183309105B9F147C03D
:1036D000E9E3F0E08081282F30E08B81882F90E0B3
:1036E000A90102C0559547958A95E2F7CA018170F4
:1036F000898335C0E6E3F0E08081282F30E08B81BC
:10370000882F90E0A90102C0559547958A95E2F768
:10371000CA018170898323C0E3E3F0E08081282F10
:1037200030E08B81882F90E0A90102C05595479524
:103730008A95E2F7CA018170898311C0E0E3F0E065
:103740008081282F30E08B81882F90E0A90102C072
:10375000559547958A95E2F7CA01817089838981D9
:103760000F900F900F900F900F90CF91DF910895D1
:10377000DF93CF9300D0CDB7DEB71A8219821A82B9
:10378000198210C0298189819A81FC01E859FE4F74
:103790009081822F692F0E94771789819A810196E3
:1037A0009A83898389819A81803291055CF30F9095
:1037B0000F90CF91DF910895DF93CF93CDB7DEB710
:1037C000E9970FB6F894DEBF0FBECDBF89AF89E091
:1037D00060E00E94E71989AD982F991F9927991FDA
:1037E00087E0692F0E94E71989AD829586958695B5
:1037F0008370982F917086E0692F0E94E71989AD38
:10380000829586958770982F917085E0692F0E9428
:10381000E71989AD82958F70982F917084E0692F98
:103820000E94E71988E061E00E94E71980E090E0DB
:10383000A0E8BFE38DAB9EABAFABB8AF6DA97EA9DF
:103840008FA998AD20E030E04AEF54E40E94841242
:10385000DC01CB0189AB9AABABABBCAB69A97AA954
:103860008BA99CA920E030E040E85FE30E94DE13D2
:1038700088232CF481E090E098AB8FA73FC069A922
:103880007AA98BA99CA920E03FEF4FE757E40E945B
:103890007E1318164CF56DA97EA98FA998AD20E06E
:1038A00030E040E251E40E948412DC01CB01BC0113
:1038B000CD010E944900DC01CB0198AB8FA70FC05E
:1038C00088EC90E09EA78DA78DA59EA50197F1F7A6
:1038D0009EA78DA78FA598A9019798AB8FA78FA5B5
:1038E00098A9009769F714C069A97AA98BA99CA91E
:1038F0000E944900DC01CB0198AB8FA78FA598A946
:103900009CA78BA78BA59CA50197F1F79CA78BA7DC
:1039100088E060E00E94E71980E090E0A0E8BFE363
:103920008FA398A7A9A7BAA76FA178A589A59AA5DB
:1039300020E030E04AEF54E40E948412DC01CB0125
:103940008BA39CA3ADA3BEA36BA17CA18DA19EA1C3
:1039500020E030E040E85FE30E94DE1388232CF48F
:1039600081E090E09AA389A33FC06BA17CA18DA1C7
:103970009EA120E03FEF4FE757E40E947E13181608
:103980004CF56FA178A589A59AA520E030E040E22A
:1039900051E40E948412DC01CB01BC01CD010E94E4
:1039A0004900DC01CB019AA389A30FC088EC90E009
:1039B00098A38F8F8F8D98A10197F1F798A38F8F80
:1039C00089A19AA101979AA389A389A19AA1009795
:1039D00069F714C06BA17CA18DA19EA10E94490032
:1039E000DC01CB019AA389A389A19AA19E8F8D8F17
:1039F0008D8D9E8D0197F1F79E8F8D8F89AD869568
:103A000086958695982F917087E0692F0E94E71917
:103A100089AD86958695982F917086E0692F0E94D2
:103A2000E71989AD8695982F917085E0692F0E94DE
:103A3000E71989AD982F917084E0692F0E94E719EA
:103A400088E061E00E94E71980E090E0A0E8BFE331
:103A5000898F9A8FAB8FBC8F698D7A8D8B8D9C8D62
:103A600020E030E04AEF54E40E948412DC01CB01F4
:103A70008D8B9E8BAF8BB88F6D897E898F89988D4A
:103A800020E030E040E85FE30E94DE1388232CF45E
:103A900081E090E09C8B8B8B3FC06D897E898F8904
:103AA000988D20E03FEF4FE757E40E947E131816F1
:103AB0004CF5698D7A8D8B8D9C8D20E030E040E255
:103AC00051E40E948412DC01CB01BC01CD010E94B3
:103AD0004900DC01CB019C8B8B8B0FC088EC90E004
:103AE0009A8B898B89899A890197F1F79A8B898BAF
:103AF0008B899C8901979C8B8B8B8B899C890097E8
:103B000069F714C06D897E898F89988D0E9449005C
:103B1000DC01CB019C8B8B8B8B899C89988B8F874D
:103B20008F8598890197F1F7988B8F8788E060E0FF
:103B30000E94E71980E090E0A0E8BFE38B879C87B4
:103B4000AD87BE876B857C858D859E8520E030E0C6
:103B50004AEF54E40E948412DC01CB018F839887E2
:103B6000A987BA876F81788589859A8520E030E0BA
:103B700040E85FE30E94DE1388232CF481E090E0AC
:103B80009E838D833FC06F81788589859A8520E0EB
:103B90003FEF4FE757E40E947E1318164CF56B85F4
:103BA0007C858D859E8520E030E040E251E40E94D6
:103BB0008412DC01CB01BC01CD010E944900DC0173
:103BC000CB019E838D830FC088EC90E09C838B8318
:103BD0008B819C810197F1F79C838B838D819E81E2
:103BE00001979E838D838D819E81009769F714C014
:103BF0006F81788589859A850E944900DC01CB0117
:103C00009E838D838D819E819A83898389819A8108
:103C10000197F1F79A838983E9960FB6F894DEBF8E
:103C20000FBECDBFCF91DF910895DF93CF93CDB776
:103C3000DEB7E9970FB6F894DEBF0FBECDBF89AFF0
:103C400089E061E00E94E71989AD982F991F9927B3
:103C5000991F87E0692F0E94E71989AD82958695A3
:103C600086958370982F917086E0692F0E94E719DE
:103C700089AD829586958770982F917085E0692F20
:103C80000E94E71989AD82958F70982F917084E01A
:103C9000692F0E94E71988E061E00E94E71980E03F
:103CA00090E0A0E8BFE38DAB9EABAFABB8AF6DA922
:103CB0007EA98FA998AD20E030E04AEF54E40E943D
:103CC0008412DC01CB0189AB9AABABABBCAB69A96D
:103CD0007AA98BA99CA920E030E040E85FE30E942C
:103CE000DE1388232CF481E090E098AB8FA73FC0CF
:103CF00069A97AA98BA99CA920E03FEF4FE757E477
:103D00000E947E1318164CF56DA97EA98FA998AD57
:103D100020E030E040E251E40E948412DC01CB015B
:103D2000BC01CD010E944900DC01CB0198AB8FA7FB
:103D30000FC088EC90E09EA78DA78DA59EA501974A
:103D4000F1F79EA78DA78FA598A9019798AB8FA78C
:103D50008FA598A9009769F714C069A97AA98BA9BA
:103D60009CA90E944900DC01CB0198AB8FA78FA5CD
:103D700098A99CA78BA78BA59CA50197F1F79CA759
:103D80008BA788E060E00E94E71980E090E0A0E85F
:103D9000BFE38FA398A7A9A7BAA76FA178A589A504
:103DA0009AA520E030E04AEF54E40E948412DC013E
:103DB000CB018BA39CA3ADA3BEA36BA17CA18DA1C2
:103DC0009EA120E030E040E85FE30E94DE138823FC
:103DD0002CF481E090E09AA389A33FC06BA17CA161
:103DE0008DA19EA120E03FEF4FE757E40E947E1394
:103DF00018164CF56FA178A589A59AA520E030E0AA
:103E000040E251E40E948412DC01CB01BC01CD01EF
:103E10000E944900DC01CB019AA389A30FC088EC62
:103E200090E098A38F8F8F8D98A10197F1F798A3B9
:103E30008F8F89A19AA101979AA389A389A19AA199
:103E4000009769F714C06BA17CA18DA19EA10E946F
:103E50004900DC01CB019AA389A389A19AA19E8F75
:103E60008D8F8D8D9E8D0197F1F79E8F8D8F89ADF2
:103E7000869586958695982F917087E0692F0E9488
:103E8000E71989AD86958695982F917086E0692F00
:103E90000E94E71989AD8695982F917085E0692F6A
:103EA0000E94E71989AD982F917084E0692F0E94D4
:103EB000E71988E061E00E94E71980E090E0A0E85F
:103EC000BFE3898F9A8FAB8FBC8F698D7A8D8B8D75
:103ED0009C8D20E030E04AEF54E40E948412DC0123
:103EE000CB018D8B9E8BAF8BB88F6D897E898F892F
:103EF000988D20E030E040E85FE30E94DE138823E5
:103F00002CF481E090E09C8B8B8B3FC06D897E8987
:103F10008F89988D20E03FEF4FE757E40E947E1392
:103F200018164CF5698D7A8D8B8D9C8D20E030E0D4
:103F300040E251E40E948412DC01CB01BC01CD01BE
:103F40000E944900DC01CB019C8B8B8B0FC088EC5D
:103F500090E09A8B898B89899A890197F1F79A8BDE
:103F6000898B8B899C8901979C8B8B8B8B899C89F6
:103F7000009769F714C06D897E898F89988D0E949A
:103F80004900DC01CB019C8B8B8B8B899C89988BA6
:103F90008F878F8598890197F1F7988B8F8788E0B5
:103FA00060E00E94E71980E090E0A0E8BFE38B8723
:103FB0009C87AD87BE876B857C858D859E8520E03F
:103FC00030E04AEF54E40E948412DC01CB018F837D
:103FD0009887A987BA876F81788589859A8520E037
:103FE00030E040E85FE30E94DE1388232CF481E098
:103FF00090E09E838D833FC06F81788589859A8507
:1040000020E03FEF4FE757E40E947E1318164CF56F
:104010006B857C858D859E8520E030E040E251E413
:104020000E948412DC01CB01BC01CD010E94490039
:10403000DC01CB019E838D830FC088EC90E09C83D4
:104040008B838B819C810197F1F79C838B838D817E
:104050009E8101979E838D838D819E81009769F754
:1040600014C06F81788589859A850E944900DC019A
:10407000CB019E838D838D819E819A8389838981E3
:104080009A810197F1F79A838983E9960FB6F8949C
:10409000DEBF0FBECDBFCF91DF9108958F929F926B
:1040A000AF92BF92CF92DF92EF92FF920F931F9346
:1040B000DF93CF93CDB7DEB7C654D0400FB6F89498
:1040C000DEBF0FBECDBF6E8B7F8B888F998F4A8FDF
:1040D0008AE0FE013C96DF01982F1D929A95E9F740
:1040E0001B861A861A821B821C821D821E821F82D8
:1040F00018861986198213C06E897F89888D998DDB
:1041000020E030E040E251E40E948412DC01CB0167
:104110008E8B9F8BA88FB98F89818F5F89839981BF
:104120008A8D981748F36E897F89888D998D0E94B2
:104130000E14DC01CB018A839B83AC83BD83BB0F50
:10414000880B982FDC018E838F83888789878985E8
:104150008823D4F08985882309F0ABC1888588231A
:1041600009F0A7C18F81882309F0A3C18E8188231C
:1041700009F09FC18D81882309F09BC18C81882320
:1041800009F097C1AB8195C11C8E1D8E1E8E1F8EAE
:1041900018A219A21AA21BA2BA81BCA38B818DA35B
:1041A0009C819EA3AD81AFA3BE81B8A78F8189A753
:1041B00098859AA7A985ABA7BC8D8CA1B81BBCA775
:1041C00091E09CABACA5BC8DBA1708F01CAA8D8DF4
:1041D0009DA1891B8DA7A1E0ADABBDA58D8D8B17D2
:1041E00008F01DAA9DA5ACA99A1B9EABB1E0BFAB80
:1041F0008EA99DA5981708F01FAAADA9BFA9AB2B42
:10420000ADAB8EA98DA79E8DAEA19A1B9EA7B1E0E6
:10421000B8AF8EA59E8D981708F018AEAEA5BDA9B3
:10422000AB1BA9AF81E08AAF99ADAEA5A91708F085
:104230001AAEB8AD8AADB82BB8AF99AD9EA7AF8D09
:10424000BFA1AB1BAFA781E08BAF9FA5AF8DA91717
:1042500008F01BAEBFA588ADB81BBCAF91E09DAF09
:10426000ACADBFA5BA1708F01DAE8BAD9DAD892BC7
:104270008BAFACADAFA7B8A188A5B81BB8AB91E028
:104280009EAFA8A9B8A1BA1708F01EAE88A99BAD29
:10429000891B8FAFA1E02196AFAF2197BFAD88A951
:1042A0008B1718F021961FAE21979EAD2196AFADCA
:1042B00021979A2B9EAFBFADB8AB89A199A5891B59
:1042C00089ABA1E02296AFAF2297B9A989A18B173C
:1042D00018F022961FAE229799A9AEAD9A1B23968D
:1042E0009FAF2397B1E02496BFAF249723968FAD5D
:1042F000239799A9981718F024961FAE2497229611
:10430000AFAD22972496BFAD2497AB2B2296AFAFCB
:10431000229723968FAD239789AB9AA1AAA59A1BC2
:104320009AABB1E02596BFAF25978AA99AA19817B5
:1043300018F025961FAE2597AAA92296BFAD229701
:10434000AB1B2696AFAF269781E027968FAF2797B6
:1043500026969FAD2697AAA9A91718F027961FAEF3
:1043600027972596BFAD259727968FAD2797B82B12
:104370002596BFAF259726969FAD26979AABABA102
:10438000BBA5AB1BABAB8BA925969FAD2597891B16
:104390008BABACA5AA83BDA5BB838EA58C839FA543
:1043A0009D83A8A9AE83B9A9BF838AA988879BA941
:1043B000998781E08A877DC08B85882E9924AA8081
:1043C000BB80CC80DD80EE80FF80088519852A2D9A
:1043D0003B2D4C2D5D2D6E2D7F2D802F912F0F2E7F
:1043E000FAE0AF2EF02DBB24CC24DD24EE24FF24F4
:1043F00000E010E00E949D08A22EB32EC42ED52E00
:10440000E62EF72E082F192F2A2D3B2D4C2D5D2D32
:104410006E2D7F2D802F912F822F282F205DCE0192
:104420000C96FC01E80DF91D2083AA80BB80CC808E
:10443000DD80EE80FF80088519852A2D3B2D4C2DCF
:104440005D2D6E2D7F2D802F912F0F2EFAE0AF2E38
:10445000F02DBB24CC24DD24EE24FF2400E010E06A
:104460000E947500A22EB32EC42ED52EE62EF72E56
:10447000082F192FAA82BB82CC82DD82EE82FF82B6
:10448000088719878B858F5F8B879B858A8D981707
:1044900081F48A8D882369F08B85282F30E0CE0146
:1044A0000C96FC01E20FF31F8EE280838B858F5FF9
:1044B0008B878A819B81892B9C81892B9D81892B6C
:1044C0009E81892B9F81892B9885892B9985892BA2
:1044D000882309F071CF8A85813091F48DE20E94A2
:1044E000151E0EC08B8581508B878B85282F30E061
:1044F000CE010C96FC01E20FF31F80810E94151E75
:104500008B85882379F7CA5BDF4F0FB6F894DEBF3F
:104510000FBECDBFCF91DF911F910F91FF90EF9014
:10452000DF90CF90BF90AF909F908F900895DF93D2
:10453000CF9300D000D0CDB7DEB79C838B831A8297
:1045400019820FC029813A818B819C81FC01E20F85
:10455000F31F80810E94151E89819A8101969A839A
:10456000898329813A818B819C81FC01E20FF31FB1
:104570008081882339F70F900F900F900F90CF9183
:10458000DF9108950F931F93DF93CF93CDB7DEB7DD
:1045900060970FB6F894DEBF0FBECDBF6D877E87E4
:1045A0008F87988B8AE0FE013396DF01982F1D924A
:1045B0009A95E9F71A8219828D859E85AF85B8890B
:1045C0000097A105B10519F480E30E94151E8D85A1
:1045D0009E85AF85B889BB230CF040C08D859E8534
:1045E000AF85B889B095A095909581959F4FAF4FB5
:1045F000BF4F8D879E87AF87B88B81E089832EC0A0
:104600008A81082F10E08D859E85AF85B8892AE0C4
:1046100030E040E050E0BC01CD010E944A28DC01BE
:10462000CB01282F205DCE010396FC01E00FF11F86
:1046300020838D859E85AF85B8892AE030E040E0F3
:1046400050E0BC01CD010E944A28DA01C9018D87E2
:104650009E87AF87B88B8A818F5F8A838D859E8581
:10466000AF85B8890097A105B10551F689818130E0
:1046700091F48DE20E94151E0EC08A8181508A83BA
:104680008A81282F30E0CE010396FC01E20FF31F50
:1046900080810E94151E8A81882379F760960FB663
:1046A000F894DEBF0FBECDBFCF91DF911F910F9168
:1046B0000895DF93CF9300D00F92CDB7DEB78A83F2
:1046C0006B838A81882F90E00024969587950794C4
:1046D000969587950794982F802D982F8B81890F19
:1046E0008983898180580E94DC1B0F900F900F9066
:1046F000CF91DF910895DF93CF9300D000D0CDB755
:10470000DEB79A8389836B834C838B816C810E9493
:10471000592389819A810E9497220F900F900F90C0
:104720000F90CF91DF9108950F931F93DF93CF9355
:10473000CDB7DEB7C256D0400FB6F894DEBF0FBE7D
:10474000CDBFFE01E15AFF4F80E090E0ACE0B2E463
:1047500080839183A283B3838E01055A1F4FFE018C
:10476000E15AFF4F608171818281938120E030E0C6
:104770004AEF54E40E948412DC01CB01F8018083EB
:104780009183A283B383FE01E55AFF4F608171815B
:104790008281938120E030E040E85FE30E94DE13F5
:1047A000882344F4FE01E75AFF4F81E090E09183B3
:1047B000808364C0FE01E55AFF4F60817181828170
:1047C000938120E03FEF4FE757E40E947E131816D5
:1047D0000CF043C0FE01E15AFF4F6081718182817C
:1047E000938120E030E040E251E40E948412DC0139
:1047F000CB018E01075A1F4FBC01CD010E94490019
:10480000DC01CB01F801918380831FC0FE01E95ACE
:10481000FF4F88EC90E091838083FE01E95AFF4FBF
:10482000808191810197F1F7FE01E95AFF4F918351
:104830008083DE01A75ABF4FFE01E75AFF4F8081F8
:104840009181019711969C938E93FE01E75AFF4F39
:10485000808191810097D1F627C08E01075A1F4FA2
:10486000FE01E55AFF4F60817181828193810E9430
:104870004900DC01CB01F80191838083DE01AB5A52
:10488000BF4FFE01E75AFF4F808191818D939C932A
:10489000FE01EB5AFF4F808191810197F1F7FE01F4
:1048A000EB5AFF4F9183808387E060E00E94E71915
:1048B00086E060E00E94E71985E061E00E94E71968
:1048C00084E060E00E94E71988E061E00E94E71957
:1048D000FE01EF5AFF4F80E090E0A0E8BFE3808345
:1048E0009183A283B3838E01035B1F4FFE01EF5AB6
:1048F000FF4F608171818281938120E030E04AEF37
:1049000054E40E948412DC01CB01F801808391837E
:10491000A283B383FE01E35BFF4F608171818281DB
:10492000938120E030E040E85FE30E94DE138823BB
:1049300044F4FE01E55BFF4F81E090E091838083CA
:1049400064C0FE01E35BFF4F6081718182819381CE
:1049500020E03FEF4FE757E40E947E1318160CF05B
:1049600043C0FE01EF5AFF4F6081718182819381C4
:1049700020E030E040E251E40E948412DC01CB01EF
:104980008E01055B1F4FBC01CD010E944900DC0177
:10499000CB01F801918380831FC0FE01E75BFF4FCD
:1049A00088EC90E091838083FE01E75BFF4F80817C
:1049B00091810197F1F7FE01E75BFF4F91838083BF
:1049C000DE01A55BBF4FFE01E55BFF4F808191815A
:1049D000019711969C938E93FE01E55BFF4F8081BA
:1049E00091810097D1F627C08E01055B1F4FFE0114
:1049F000E35BFF4F60817181828193810E94490056
:104A0000DC01CB01F80191838083DE01A95BBF4FFC
:104A1000FE01E55BFF4F808191818D939C93FE01A8
:104A2000E95BFF4F808191810197F1F7FE01E95B1E
:104A3000FF4F9183808388E060E00E94E719FE01C8
:104A4000ED5BFF4F80E090E0A0E8BFE380839183BF
:104A5000A283B3838E01015C1F4FFE01ED5BFF4F0C
:104A6000608171818281938120E030E04AEF54E4DB
:104A70000E948412DC01CB01F80180839183A28320
:104A8000B383FE01FF96608171818281938120E072
:104A900030E040E85FE30E94DE1388232CF481E0DD
:104AA00090E09EAF8DAF46C0FE01FF9660817181A0
:104AB0008281938120E03FEF4FE757E40E947E130D
:104AC000181664F5FE01ED5BFF4F608171818281F4
:104AD000938120E030E040E251E40E948412DC0146
:104AE000CB01BC01CD010E944900DC01CB019EAF8E
:104AF0008DAF0FC088EC90E09CAF8BAF8BAD9CADC1
:104B00000197F1F79CAF8BAF8DAD9EAD01979EAF36
:104B10008DAF8DAD9EAD009769F716C0FE01FF9673
:104B200060817181828193810E944900DC01CB0107
:104B30009EAF8DAF8DAD9EAD9AAF89AF89AD9AAD69
:104B40000197F1F79AAF89AF88E20E94DC1B80E001
:104B500090E0A0E8BFE38DAB9EABAFABB8AF6DA963
:104B60007EA98FA998AD20E030E04AEF54E40E947E
:104B70008412DC01CB0189AB9AABABABBCAB69A9AE
:104B80007AA98BA99CA920E030E040E85FE30E946D
:104B9000DE1388232CF481E090E098AB8FA73FC010
:104BA00069A97AA98BA99CA920E03FEF4FE757E4B8
:104BB0000E947E1318164CF56DA97EA98FA998AD99
:104BC00020E030E040E251E40E948412DC01CB019D
:104BD000BC01CD010E944900DC01CB0198AB8FA73D
:104BE0000FC088EC90E09EA78DA78DA59EA501978C
:104BF000F1F79EA78DA78FA598A9019798AB8FA7CE
:104C00008FA598A9009769F714C069A97AA98BA9FB
:104C10009CA90E944900DC01CB0198AB8FA78FA50E
:104C200098A99CA78BA78BA59CA50197F1F79CA79A
:104C30008BA78CE00E94DC1B80E090E0A0E8BFE343
:104C40008FA398A7A9A7BAA76FA178A589A59AA5A8
:104C500020E030E04AEF54E40E948412DC01CB01F2
:104C60008BA39CA3ADA3BEA36BA17CA18DA19EA190
:104C700020E030E040E85FE30E94DE1388232CF45C
:104C800081E090E09AA389A33FC06BA17CA18DA194
:104C90009EA120E03FEF4FE757E40E947E131816D5
:104CA0004CF56FA178A589A59AA520E030E040E2F7
:104CB00051E40E948412DC01CB01BC01CD010E94B1
:104CC0004900DC01CB019AA389A30FC088EC90E0D6
:104CD00098A38F8F8F8D98A10197F1F798A38F8F4D
:104CE00089A19AA101979AA389A389A19AA1009762
:104CF00069F714C06BA17CA18DA19EA10E944900FF
:104D0000DC01CB019AA389A389A19AA19E8F8D8FE3
:104D10008D8D9E8D0197F1F79E8F8D8F81E00E9482
:104D2000DC1B80E090E0A0E0B0E4898F9A8FAB8F2D
:104D3000BC8F698D7A8D8B8D9C8D20E030E04AEFA1
:104D400054E40E948412DC01CB018D8B9E8BAF8BCF
:104D5000B88F6D897E898F89988D20E030E040E89A
:104D60005FE30E94DE1388232CF481E090E09C8BAB
:104D70008B8B3FC06D897E898F89988D20E03FEFB6
:104D80004FE757E40E947E1318164CF5698D7A8D13
:104D90008B8D9C8D20E030E040E251E40E94841233
:104DA000DC01CB01BC01CD010E944900DC01CB013B
:104DB0009C8B8B8B0FC088EC90E09A8B898B8989B8
:104DC0009A890197F1F79A8B898B8B899C89019736
:104DD0009C8B8B8B8B899C89009769F714C06D899C
:104DE0007E898F89988D0E944900DC01CB019C8BC4
:104DF0008B8B8B899C89988B8F878F85988901975E
:104E0000F1F7988B8F8786E00E94DC1B80E090E0B2
:104E1000A0E7B1E48B879C87AD87BE876B857C85D7
:104E20008D859E8520E030E04AEF54E40E94841294
:104E3000DC01CB018F839887A987BA876F8178853A
:104E400089859A8520E030E040E85FE30E94DE1328
:104E500088232CF481E090E09E838D833FC06F8196
:104E6000788589859A8520E03FEF4FE757E40E94D7
:104E70007E1318164CF56B857C858D859E8520E00C
:104E800030E040E251E40E948412DC01CB01BC011D
:104E9000CD010E944900DC01CB019E838D830FC0B0
:104EA00088EC90E09C838B838B819C810197F1F748
:104EB0009C838B838D819E8101979E838D838D81C1
:104EC0009E81009769F714C06F81788589859A85DE
:104ED0000E944900DC01CB019E838D838D819E81E0
:104EE0009A83898389819A810197F1F79A838983CB
:104EF000CE59DF4F0FB6F894DEBF0FBECDBFCF91B6
:104F0000DF911F910F910895DF93CF93CDB7DEB757
:104F100081E00E94DC1BCF91DF910895DF93CF9356
:104F200000D0CDB7DEB71A8219820EC089819A816E
:104F3000FC01E857FE4F808161E00E94E7198981FA
:104F40009A8101969A83898389819A818430910517
:104F50006CF30F900F90CF91DF910895DF93CF9373
:104F600000D000D00F92CDB7DEB71D821C821B820D
:104F70003DC08B819C81FC01E857FE4F808160E041
:104F80000E94E7191A8219821EC089819A81FC0148
:104F9000E457FE4F80810E94371B882379F48B8170
:104FA0009C8129813A81880F991F880F991F820F50
:104FB000931FFC01E057FE4F80818D8389819A8188
:104FC00001969A83898389819A8184309105ECF2D4
:104FD0008B819C81FC01E857FE4F808161E00E943B
:104FE000E7198B819C8101969C838B838B819C81AB
:104FF000843091050CF4BDCF8D810F900F900F90F0
:105000000F900F90CF91DF910895DF93CF93CDB79D
:10501000DEB78AE160E00E9477178BE160E00E94D2
:1050200077178AE060E00E94771788E062E00E94CC
:10503000771780E061E00E94081681E062E00E943C
:10504000081682E062E00E94081685E398E260E0BC
:105050000E94D51685E398E261E00E94D51685E3AB
:1050600098E262E00E94D516FFCFDF93CF930F92B4
:10507000CDB7DEB788E00E94371B1982882311F470
:1050800081E0898388E069810E94E7190F90CF91C0
:10509000DF91089597FB092E05260ED057FD04D009
:1050A00033D00AD0001C38F45095409530952195A6
:1050B0003F4F4F4F5F4F0895F6F79095809570954D
:1050C00061957F4F8F4F9F4F0895629FD001739FCF
:1050D000F001829FE00DF11D649FE00DF11D929F94
:1050E000F00D839FF00D749FF00D659FF00D9927D3
:1050F000729FB00DE11DF91F639FB00DE11DF91FF7
:10510000BD01CF0111240895A1E21A2EAA1BBB1BD9
:10511000FD010DC0AA1FBB1FEE1FFF1FA217B30783
:10512000E407F50720F0A21BB30BE40BF50B661F99
:10513000771F881F991F1A9469F76095709580955D
:1051400090959B01AC01BD01CF0108952F923F9234
:105150004F925F926F927F928F929F92AF92BF9287
:10516000CF92DF92EF92FF920F931F93CF93DF9333
:10517000CDB7DEB7CA1BDB0B0FB6F894DEBF0FBE90
:10518000CDBF09942A88398848885F846E847D84DD
:105190008C849B84AA84B984C884DF80EE80FD80DF
:1051A0000C811B81AA81B981CE0FD11D0FB6F89455
:0E51B000DEBF0FBECDBFED010895F894FFCF16
:1051BE0000000000000000000001020203030303D0
:1051CE000404040404040404050505050505050589
:1051DE000505050505050505060606060606060669
:1051EE000606060606060606060606060606060651
:1051FE000606060606060606070707070707070739
:10520E000707070707070707070707070707070720
:10521E000707070707070707070707070707070710
:10522E000707070707070707070707070707070700
:10523E0007070707070707070808080808080808E8
:10524E0008080808080808080808080808080808D0
:10525E0008080808080808080808080808080808C0
:10526E0008080808080808080808080808080808B0
:10527E0008080808080808080808080808080808A0
:10528E000808080808080808080808080808080890
:10529E000808080808080808080808080808080880
:1052AE000808080808080808080808080808080870
:1052BE000808080808080808020202020202020290
:1052CE0002020101010101010101010101010101BE
:1052DE0002020202000000001B1A19181C1D1E1FDC
:1052EE003738392F343536783132332D63303D2B04
:00000001FF
